{
  "contractName": "dBank",
  "abi": [
    {
      "inputs": [
        {
          "internalType": "contract Token",
          "name": "_token",
          "type": "address"
        }
      ],
      "stateMutability": "nonpayable",
      "type": "constructor"
    },
    {
      "anonymous": false,
      "inputs": [
        {
          "indexed": true,
          "internalType": "address",
          "name": "user",
          "type": "address"
        },
        {
          "indexed": false,
          "internalType": "uint256",
          "name": "collateralEtherAmount",
          "type": "uint256"
        },
        {
          "indexed": false,
          "internalType": "uint256",
          "name": "borrowedTokenAmount",
          "type": "uint256"
        }
      ],
      "name": "Borrow",
      "type": "event"
    },
    {
      "anonymous": false,
      "inputs": [
        {
          "indexed": true,
          "internalType": "address",
          "name": "user",
          "type": "address"
        },
        {
          "indexed": false,
          "internalType": "uint256",
          "name": "etherAmount",
          "type": "uint256"
        },
        {
          "indexed": false,
          "internalType": "uint256",
          "name": "timeStart",
          "type": "uint256"
        }
      ],
      "name": "Deposit",
      "type": "event"
    },
    {
      "anonymous": false,
      "inputs": [
        {
          "indexed": true,
          "internalType": "address",
          "name": "user",
          "type": "address"
        },
        {
          "indexed": false,
          "internalType": "uint256",
          "name": "fee",
          "type": "uint256"
        }
      ],
      "name": "PayOff",
      "type": "event"
    },
    {
      "anonymous": false,
      "inputs": [
        {
          "indexed": true,
          "internalType": "address",
          "name": "user",
          "type": "address"
        },
        {
          "indexed": false,
          "internalType": "uint256",
          "name": "etherAmount",
          "type": "uint256"
        },
        {
          "indexed": false,
          "internalType": "uint256",
          "name": "depositTime",
          "type": "uint256"
        },
        {
          "indexed": false,
          "internalType": "uint256",
          "name": "interest",
          "type": "uint256"
        }
      ],
      "name": "Withdraw",
      "type": "event"
    },
    {
      "inputs": [
        {
          "internalType": "address",
          "name": "",
          "type": "address"
        }
      ],
      "name": "collateralEther",
      "outputs": [
        {
          "internalType": "uint256",
          "name": "",
          "type": "uint256"
        }
      ],
      "stateMutability": "view",
      "type": "function",
      "constant": true
    },
    {
      "inputs": [
        {
          "internalType": "address",
          "name": "",
          "type": "address"
        }
      ],
      "name": "depositStart",
      "outputs": [
        {
          "internalType": "uint256",
          "name": "",
          "type": "uint256"
        }
      ],
      "stateMutability": "view",
      "type": "function",
      "constant": true
    },
    {
      "inputs": [
        {
          "internalType": "address",
          "name": "",
          "type": "address"
        }
      ],
      "name": "etherBalanceOf",
      "outputs": [
        {
          "internalType": "uint256",
          "name": "",
          "type": "uint256"
        }
      ],
      "stateMutability": "view",
      "type": "function",
      "constant": true
    },
    {
      "inputs": [
        {
          "internalType": "address",
          "name": "",
          "type": "address"
        }
      ],
      "name": "isBorrowed",
      "outputs": [
        {
          "internalType": "bool",
          "name": "",
          "type": "bool"
        }
      ],
      "stateMutability": "view",
      "type": "function",
      "constant": true
    },
    {
      "inputs": [
        {
          "internalType": "address",
          "name": "",
          "type": "address"
        }
      ],
      "name": "isDeposited",
      "outputs": [
        {
          "internalType": "bool",
          "name": "",
          "type": "bool"
        }
      ],
      "stateMutability": "view",
      "type": "function",
      "constant": true
    },
    {
      "inputs": [],
      "name": "deposit",
      "outputs": [],
      "stateMutability": "payable",
      "type": "function",
      "payable": true
    },
    {
      "inputs": [],
      "name": "withdraw",
      "outputs": [],
      "stateMutability": "nonpayable",
      "type": "function"
    },
    {
      "inputs": [],
      "name": "borrow",
      "outputs": [],
      "stateMutability": "payable",
      "type": "function",
      "payable": true
    },
    {
      "inputs": [],
      "name": "payOff",
      "outputs": [],
      "stateMutability": "nonpayable",
      "type": "function"
    }
  ],
  "bytecode": "0x60806040523480156200001157600080fd5b50604051620017ea380380620017ea8339818101604052810190620000379190620000fc565b806000806101000a81548173ffffffffffffffffffffffffffffffffffffffff021916908373ffffffffffffffffffffffffffffffffffffffff160217905550506200012e565b600080fd5b600073ffffffffffffffffffffffffffffffffffffffff82169050919050565b6000620000b08262000083565b9050919050565b6000620000c482620000a3565b9050919050565b620000d681620000b7565b8114620000e257600080fd5b50565b600081519050620000f681620000cb565b92915050565b6000602082840312156200011557620001146200007e565b5b60006200012584828501620000e5565b91505092915050565b6116ac806200013e6000396000f3fe6080604052600436106100865760003560e01c806375a40d2a1161005957806375a40d2a14610133578063cdebd93214610170578063d0e30db0146101ad578063e68d3569146101b7578063ff87930a146101c157610086565b8063179fc99f1461008b5780633ccfd60b146100c85780633fac68d5146100df57806373732024146100f6575b600080fd5b34801561009757600080fd5b506100b260048036038101906100ad9190610ff3565b6101fe565b6040516100bf9190611039565b60405180910390f35b3480156100d457600080fd5b506100dd610216565b005b3480156100eb57600080fd5b506100f46105bf565b005b34801561010257600080fd5b5061011d60048036038101906101189190610ff3565b61094b565b60405161012a919061106f565b60405180910390f35b34801561013f57600080fd5b5061015a60048036038101906101559190610ff3565b61096b565b6040516101679190611039565b60405180910390f35b34801561017c57600080fd5b5061019760048036038101906101929190610ff3565b610983565b6040516101a4919061106f565b60405180910390f35b6101b56109a3565b005b6101bf610c46565b005b3480156101cd57600080fd5b506101e860048036038101906101e39190610ff3565b610f78565b6040516101f59190611039565b60405180910390f35b60026020528060005260406000206000915090505481565b60011515600460003373ffffffffffffffffffffffffffffffffffffffff1673ffffffffffffffffffffffffffffffffffffffff16815260200190815260200160002060009054906101000a900460ff161515146102a9576040517f08c379a00000000000000000000000000000000000000000000000000000000081526004016102a0906110e7565b60405180910390fd5b6000600260003373ffffffffffffffffffffffffffffffffffffffff1673ffffffffffffffffffffffffffffffffffffffff1681526020019081526020016000205490506000600160003373ffffffffffffffffffffffffffffffffffffffff1673ffffffffffffffffffffffffffffffffffffffff168152602001908152602001600020544261033a9190611136565b90506000662386f26fc10000600260003373ffffffffffffffffffffffffffffffffffffffff1673ffffffffffffffffffffffffffffffffffffffff168152602001908152602001600020546103909190611199565b6301e3373161039f91906111ca565b9050600082826103af91906111ca565b90503373ffffffffffffffffffffffffffffffffffffffff166108fc859081150290604051600060405180830381858888f193505050501580156103f7573d6000803e3d6000fd5b5060008054906101000a900473ffffffffffffffffffffffffffffffffffffffff1673ffffffffffffffffffffffffffffffffffffffff166340c10f1933836040518363ffffffff1660e01b8152600401610453929190611233565b600060405180830381600087803b15801561046d57600080fd5b505af1158015610481573d6000803e3d6000fd5b505050506000600160003373ffffffffffffffffffffffffffffffffffffffff1673ffffffffffffffffffffffffffffffffffffffff168152602001908152602001600020819055506000600260003373ffffffffffffffffffffffffffffffffffffffff1673ffffffffffffffffffffffffffffffffffffffff168152602001908152602001600020819055506000600460003373ffffffffffffffffffffffffffffffffffffffff1673ffffffffffffffffffffffffffffffffffffffff16815260200190815260200160002060006101000a81548160ff0219169083151502179055503373ffffffffffffffffffffffffffffffffffffffff167f02f25270a4d87bea75db541cdfe559334a275b4a233520ed6c0a2429667cca948585846040516105b19392919061125c565b60405180910390a250505050565b60011515600560003373ffffffffffffffffffffffffffffffffffffffff1673ffffffffffffffffffffffffffffffffffffffff16815260200190815260200160002060009054906101000a900460ff16151514610652576040517f08c379a0000000000000000000000000000000000000000000000000000000008152600401610649906112df565b60405180910390fd5b60008054906101000a900473ffffffffffffffffffffffffffffffffffffffff1673ffffffffffffffffffffffffffffffffffffffff166323b872dd33306002600360003373ffffffffffffffffffffffffffffffffffffffff1673ffffffffffffffffffffffffffffffffffffffff168152602001908152602001600020546106dc9190611199565b6040518463ffffffff1660e01b81526004016106fa939291906112ff565b6020604051808303816000875af1158015610719573d6000803e3d6000fd5b505050506040513d601f19601f8201168201806040525081019061073d9190611362565b61077c576040517f08c379a0000000000000000000000000000000000000000000000000000000008152600401610773906113db565b60405180910390fd5b6000600a600360003373ffffffffffffffffffffffffffffffffffffffff1673ffffffffffffffffffffffffffffffffffffffff168152602001908152602001600020546107ca9190611199565b90503373ffffffffffffffffffffffffffffffffffffffff166108fc82600360003373ffffffffffffffffffffffffffffffffffffffff1673ffffffffffffffffffffffffffffffffffffffff168152602001908152602001600020546108319190611136565b9081150290604051600060405180830381858888f1935050505015801561085c573d6000803e3d6000fd5b506000600360003373ffffffffffffffffffffffffffffffffffffffff1673ffffffffffffffffffffffffffffffffffffffff168152602001908152602001600020819055506000600560003373ffffffffffffffffffffffffffffffffffffffff1673ffffffffffffffffffffffffffffffffffffffff16815260200190815260200160002060006101000a81548160ff0219169083151502179055503373ffffffffffffffffffffffffffffffffffffffff167ffd9bbd044fa427970e4d882ebbb4a89ce422dc29b23f2777a14a93ecdf42c644826040516109409190611039565b60405180910390a250565b60046020528060005260406000206000915054906101000a900460ff1681565b60036020528060005260406000206000915090505481565b60056020528060005260406000206000915054906101000a900460ff1681565b60001515600460003373ffffffffffffffffffffffffffffffffffffffff1673ffffffffffffffffffffffffffffffffffffffff16815260200190815260200160002060009054906101000a900460ff16151514610a36576040517f08c379a0000000000000000000000000000000000000000000000000000000008152600401610a2d90611447565b60405180910390fd5b662386f26fc10000341015610a80576040517f08c379a0000000000000000000000000000000000000000000000000000000008152600401610a77906114d9565b60405180910390fd5b34600260003373ffffffffffffffffffffffffffffffffffffffff1673ffffffffffffffffffffffffffffffffffffffff16815260200190815260200160002054610acb91906114f9565b600260003373ffffffffffffffffffffffffffffffffffffffff1673ffffffffffffffffffffffffffffffffffffffff1681526020019081526020016000208190555042600160003373ffffffffffffffffffffffffffffffffffffffff1673ffffffffffffffffffffffffffffffffffffffff16815260200190815260200160002054610b5991906114f9565b600160003373ffffffffffffffffffffffffffffffffffffffff1673ffffffffffffffffffffffffffffffffffffffff168152602001908152602001600020819055506001600460003373ffffffffffffffffffffffffffffffffffffffff1673ffffffffffffffffffffffffffffffffffffffff16815260200190815260200160002060006101000a81548160ff0219169083151502179055503373ffffffffffffffffffffffffffffffffffffffff167f90890809c654f11d6e72a28fa60149770a0d11ec6c92319d6ceb2bb0a4ea1a153442604051610c3c92919061154f565b60405180910390a2565b662386f26fc10000341015610c90576040517f08c379a0000000000000000000000000000000000000000000000000000000008152600401610c87906115ea565b60405180910390fd5b60001515600560003373ffffffffffffffffffffffffffffffffffffffff1673ffffffffffffffffffffffffffffffffffffffff16815260200190815260200160002060009054906101000a900460ff16151514610d23576040517f08c379a0000000000000000000000000000000000000000000000000000000008152600401610d1a90611656565b60405180910390fd5b34600360003373ffffffffffffffffffffffffffffffffffffffff1673ffffffffffffffffffffffffffffffffffffffff16815260200190815260200160002054610d6e91906114f9565b600360003373ffffffffffffffffffffffffffffffffffffffff1673ffffffffffffffffffffffffffffffffffffffff1681526020019081526020016000208190555060006002600360003373ffffffffffffffffffffffffffffffffffffffff1673ffffffffffffffffffffffffffffffffffffffff16815260200190815260200160002054610dff9190611199565b905060008054906101000a900473ffffffffffffffffffffffffffffffffffffffff1673ffffffffffffffffffffffffffffffffffffffff166340c10f1933836040518363ffffffff1660e01b8152600401610e5c929190611233565b600060405180830381600087803b158015610e7657600080fd5b505af1158015610e8a573d6000803e3d6000fd5b505050506001600560003373ffffffffffffffffffffffffffffffffffffffff1673ffffffffffffffffffffffffffffffffffffffff16815260200190815260200160002060006101000a81548160ff0219169083151502179055503373ffffffffffffffffffffffffffffffffffffffff167fe1979fe4c35e0cef342fef5668e2c8e7a7e9f5d5d1ca8fee0ac6c427fa4153af600360003373ffffffffffffffffffffffffffffffffffffffff1673ffffffffffffffffffffffffffffffffffffffff1681526020019081526020016000205483604051610f6d92919061154f565b60405180910390a250565b60016020528060005260406000206000915090505481565b600080fd5b600073ffffffffffffffffffffffffffffffffffffffff82169050919050565b6000610fc082610f95565b9050919050565b610fd081610fb5565b8114610fdb57600080fd5b50565b600081359050610fed81610fc7565b92915050565b60006020828403121561100957611008610f90565b5b600061101784828501610fde565b91505092915050565b6000819050919050565b61103381611020565b82525050565b600060208201905061104e600083018461102a565b92915050565b60008115159050919050565b61106981611054565b82525050565b60006020820190506110846000830184611060565b92915050565b600082825260208201905092915050565b7f4572726f722c206e6f2070726576696f7573206465706f736974000000000000600082015250565b60006110d1601a8361108a565b91506110dc8261109b565b602082019050919050565b60006020820190508181036000830152611100816110c4565b9050919050565b7f4e487b7100000000000000000000000000000000000000000000000000000000600052601160045260246000fd5b600061114182611020565b915061114c83611020565b92508282101561115f5761115e611107565b5b828203905092915050565b7f4e487b7100000000000000000000000000000000000000000000000000000000600052601260045260246000fd5b60006111a482611020565b91506111af83611020565b9250826111bf576111be61116a565b5b828204905092915050565b60006111d582611020565b91506111e083611020565b9250817fffffffffffffffffffffffffffffffffffffffffffffffffffffffffffffffff048311821515161561121957611218611107565b5b828202905092915050565b61122d81610fb5565b82525050565b60006040820190506112486000830185611224565b611255602083018461102a565b9392505050565b6000606082019050611271600083018661102a565b61127e602083018561102a565b61128b604083018461102a565b949350505050565b7f4572726f722c206c6f616e206e6f742061637469766500000000000000000000600082015250565b60006112c960168361108a565b91506112d482611293565b602082019050919050565b600060208201905081810360008301526112f8816112bc565b9050919050565b60006060820190506113146000830186611224565b6113216020830185611224565b61132e604083018461102a565b949350505050565b61133f81611054565b811461134a57600080fd5b50565b60008151905061135c81611336565b92915050565b60006020828403121561137857611377610f90565b5b60006113868482850161134d565b91505092915050565b7f4572726f722c2063616e2774207265636569766520746f6b656e730000000000600082015250565b60006113c5601b8361108a565b91506113d08261138f565b602082019050919050565b600060208201905081810360008301526113f4816113b8565b9050919050565b7f4572726f722c206465706f73697420616c726561647920616374697665000000600082015250565b6000611431601d8361108a565b915061143c826113fb565b602082019050919050565b6000602082019050818103600083015261146081611424565b9050919050565b7f4572726f722c206465706f736974206d757374206265203e3d20302e3031204560008201527f5448000000000000000000000000000000000000000000000000000000000000602082015250565b60006114c360228361108a565b91506114ce82611467565b604082019050919050565b600060208201905081810360008301526114f2816114b6565b9050919050565b600061150482611020565b915061150f83611020565b9250827fffffffffffffffffffffffffffffffffffffffffffffffffffffffffffffffff0382111561154457611543611107565b5b828201905092915050565b6000604082019050611564600083018561102a565b611571602083018461102a565b9392505050565b7f4572726f722c20636f6c6c61746572616c206d757374206265203e3d20302e3060008201527f3120455448000000000000000000000000000000000000000000000000000000602082015250565b60006115d460258361108a565b91506115df82611578565b604082019050919050565b60006020820190508181036000830152611603816115c7565b9050919050565b7f4572726f722c206c6f616e20616c72656164792074616b656e00000000000000600082015250565b600061164060198361108a565b915061164b8261160a565b602082019050919050565b6000602082019050818103600083015261166f81611633565b905091905056fea264697066735822122011288854bfb70e50c8fb297d2e00eff11e08abab0012433c26fe341b856250d364736f6c634300080b0033",
  "immutableReferences": {},
  "source": "// SPDX-License-Identifier: MIT\npragma solidity >=0.6.0 <0.9.0;\n\nimport \"./Token.sol\";\n\ncontract dBank {\n\n  Token private token;\n\n  mapping(address => uint) public depositStart;\n  mapping(address => uint) public etherBalanceOf;\n  mapping(address => uint) public collateralEther;\n\n  mapping(address => bool) public isDeposited;\n  mapping(address => bool) public isBorrowed;\n\n  event Deposit(address indexed user, uint etherAmount, uint timeStart);\n  event Withdraw(address indexed user, uint etherAmount, uint depositTime, uint interest);\n  event Borrow(address indexed user, uint collateralEtherAmount, uint borrowedTokenAmount);\n  event PayOff(address indexed user, uint fee);\n\n  constructor(Token _token) public {\n    token = _token;\n  }\n\n  function deposit() payable public {\n    require(isDeposited[msg.sender] == false, 'Error, deposit already active');\n    require(msg.value>=1e16, 'Error, deposit must be >= 0.01 ETH');\n\n    etherBalanceOf[msg.sender] = etherBalanceOf[msg.sender] + msg.value;\n    depositStart[msg.sender] = depositStart[msg.sender] + block.timestamp;\n\n    isDeposited[msg.sender] = true; //activate deposit status\n    emit Deposit(msg.sender, msg.value, block.timestamp);\n  }\n\n  function withdraw() public {\n    require(isDeposited[msg.sender]==true, 'Error, no previous deposit');\n    uint userBalance = etherBalanceOf[msg.sender]; //for event\n\n    //check user's hodl time\n    uint depositTime = block.timestamp - depositStart[msg.sender];\n\n    //31668017 - interest(10% APY) per second for min. deposit amount (0.01 ETH), cuz:\n    //1e15(10% of 0.01 ETH) / 31577600 (seconds in 365.25 days)\n\n    //(etherBalanceOf[msg.sender] / 1e16) - calc. how much higher interest will be (based on deposit), e.g.:\n    //for min. deposit (0.01 ETH), (etherBalanceOf[msg.sender] / 1e16) = 1 (the same, 31668017/s)\n    //for deposit 0.02 ETH, (etherBalanceOf[msg.sender] / 1e16) = 2 (doubled, (2*31668017)/s)\n    uint interestPerSecond = 31668017 * (etherBalanceOf[msg.sender] / 1e16);\n    uint interest = interestPerSecond * depositTime;\n\n    //send funds to user\n    payable(msg.sender).transfer(userBalance); //eth back to user\n    token.mint(msg.sender, interest); //interest to user\n\n    //reset depositer data\n    depositStart[msg.sender] = 0;\n    etherBalanceOf[msg.sender] = 0;\n    isDeposited[msg.sender] = false;\n\n    emit Withdraw(msg.sender, userBalance, depositTime, interest);\n  }\n\n  function borrow() payable public {\n    require(msg.value>=1e16, 'Error, collateral must be >= 0.01 ETH');\n    require(isBorrowed[msg.sender] == false, 'Error, loan already taken');\n\n    //this Ether will be locked till user payOff the loan\n    collateralEther[msg.sender] = collateralEther[msg.sender] + msg.value;\n\n    //calc tokens amount to mint, 50% of msg.value\n    uint tokensToMint = collateralEther[msg.sender] / 2;\n\n    //mint&send tokens to user\n    token.mint(msg.sender, tokensToMint);\n\n    //activate borrower's loan status\n    isBorrowed[msg.sender] = true;\n\n    emit Borrow(msg.sender, collateralEther[msg.sender], tokensToMint);\n  }\n\n  function payOff() public {\n    require(isBorrowed[msg.sender] == true, 'Error, loan not active');\n    require(token.transferFrom(msg.sender, address(this), collateralEther[msg.sender]/2), \"Error, can't receive tokens\"); //must approve dBank 1st\n\n    uint fee = collateralEther[msg.sender]/10; //calc 10% fee\n\n    //send user's collateral minus fee\n    payable(msg.sender).transfer(collateralEther[msg.sender]-fee);\n\n    //reset borrower's data\n    collateralEther[msg.sender] = 0;\n    isBorrowed[msg.sender] = false;\n\n    emit PayOff(msg.sender, fee);\n  }\n}",
  "sourcePath": "/Users/gadgetboy/Development/eth_wallet/contracts/deBank.sol",
  "compiler": {
    "name": "solc",
    "version": "0.8.11+commit.d7f03943.Emscripten.clang"
  },
  "schemaVersion": "3.4.4",
  "updatedAt": "2022-02-05T03:32:30.618Z",
  "networkType": "ethereum",
  "devdoc": {
    "kind": "dev",
    "methods": {},
    "version": 1
  },
  "userdoc": {
    "kind": "user",
    "methods": {},
    "version": 1
  }
}